{
  "_format": "hh-sol-artifact-1",
  "contractName": "Charity",
  "sourceName": "contracts/Charity.sol",
  "abi": [
    {
      "inputs": [
        {
          "internalType": "string",
          "name": "_charityName",
          "type": "string"
        }
      ],
      "stateMutability": "nonpayable",
      "type": "constructor"
    },
    {
      "anonymous": false,
      "inputs": [
        {
          "indexed": true,
          "internalType": "address",
          "name": "donor",
          "type": "address"
        },
        {
          "indexed": false,
          "internalType": "uint256",
          "name": "amount",
          "type": "uint256"
        },
        {
          "indexed": false,
          "internalType": "uint256",
          "name": "timestamp",
          "type": "uint256"
        },
        {
          "indexed": false,
          "internalType": "string",
          "name": "message",
          "type": "string"
        }
      ],
      "name": "DonationReceived",
      "type": "event"
    },
    {
      "anonymous": false,
      "inputs": [
        {
          "indexed": true,
          "internalType": "address",
          "name": "owner",
          "type": "address"
        },
        {
          "indexed": false,
          "internalType": "uint256",
          "name": "amount",
          "type": "uint256"
        }
      ],
      "name": "Withdrawal",
      "type": "event"
    },
    {
      "inputs": [],
      "name": "charityName",
      "outputs": [
        {
          "internalType": "string",
          "name": "",
          "type": "string"
        }
      ],
      "stateMutability": "view",
      "type": "function"
    },
    {
      "inputs": [
        {
          "internalType": "string",
          "name": "_message",
          "type": "string"
        }
      ],
      "name": "donate",
      "outputs": [],
      "stateMutability": "payable",
      "type": "function"
    },
    {
      "inputs": [
        {
          "internalType": "uint256",
          "name": "",
          "type": "uint256"
        }
      ],
      "name": "donations",
      "outputs": [
        {
          "internalType": "address",
          "name": "donor",
          "type": "address"
        },
        {
          "internalType": "uint256",
          "name": "amount",
          "type": "uint256"
        },
        {
          "internalType": "uint256",
          "name": "timestamp",
          "type": "uint256"
        },
        {
          "internalType": "string",
          "name": "message",
          "type": "string"
        }
      ],
      "stateMutability": "view",
      "type": "function"
    },
    {
      "inputs": [],
      "name": "getContractBalance",
      "outputs": [
        {
          "internalType": "uint256",
          "name": "",
          "type": "uint256"
        }
      ],
      "stateMutability": "view",
      "type": "function"
    },
    {
      "inputs": [
        {
          "internalType": "uint256",
          "name": "index",
          "type": "uint256"
        }
      ],
      "name": "getDonation",
      "outputs": [
        {
          "internalType": "address",
          "name": "donor",
          "type": "address"
        },
        {
          "internalType": "uint256",
          "name": "amount",
          "type": "uint256"
        },
        {
          "internalType": "uint256",
          "name": "timestamp",
          "type": "uint256"
        },
        {
          "internalType": "string",
          "name": "message",
          "type": "string"
        }
      ],
      "stateMutability": "view",
      "type": "function"
    },
    {
      "inputs": [],
      "name": "getDonationCount",
      "outputs": [
        {
          "internalType": "uint256",
          "name": "",
          "type": "uint256"
        }
      ],
      "stateMutability": "view",
      "type": "function"
    },
    {
      "inputs": [],
      "name": "owner",
      "outputs": [
        {
          "internalType": "address",
          "name": "",
          "type": "address"
        }
      ],
      "stateMutability": "view",
      "type": "function"
    },
    {
      "inputs": [],
      "name": "totalDonations",
      "outputs": [
        {
          "internalType": "uint256",
          "name": "",
          "type": "uint256"
        }
      ],
      "stateMutability": "view",
      "type": "function"
    },
    {
      "inputs": [],
      "name": "withdraw",
      "outputs": [],
      "stateMutability": "nonpayable",
      "type": "function"
    }
  ],
  "bytecode": "0x60806040523480156200001157600080fd5b5060405162001407380380620014078339818101604052810190620000379190620001b9565b336000806101000a81548173ffffffffffffffffffffffffffffffffffffffff021916908373ffffffffffffffffffffffffffffffffffffffff16021790555080600190805190602001906200008f92919062000097565b50506200032f565b828054620000a5906200029b565b90600052602060002090601f016020900481019282620000c9576000855562000115565b82601f10620000e457805160ff191683800117855562000115565b8280016001018555821562000115579182015b8281111562000114578251825591602001919060010190620000f7565b5b50905062000124919062000128565b5090565b5b808211156200014357600081600090555060010162000129565b5090565b60006200015e620001588462000232565b620001fe565b9050828152602081018484840111156200017757600080fd5b6200018484828562000265565b509392505050565b600082601f8301126200019e57600080fd5b8151620001b084826020860162000147565b91505092915050565b600060208284031215620001cc57600080fd5b600082015167ffffffffffffffff811115620001e757600080fd5b620001f5848285016200018c565b91505092915050565b6000604051905081810181811067ffffffffffffffff8211171562000228576200022762000300565b5b8060405250919050565b600067ffffffffffffffff82111562000250576200024f62000300565b5b601f19601f8301169050602081019050919050565b60005b838110156200028557808201518184015260208101905062000268565b8381111562000295576000848401525b50505050565b60006002820490506001821680620002b457607f821691505b60208210811415620002cb57620002ca620002d1565b5b50919050565b7f4e487b7100000000000000000000000000000000000000000000000000000000600052602260045260246000fd5b7f4e487b7100000000000000000000000000000000000000000000000000000000600052604160045260246000fd5b6110c8806200033f6000396000f3fe6080604052600436106100865760003560e01c8063b5aebc8011610059578063b5aebc8014610123578063de2ed8931461013f578063e55a62a81461016a578063ef07a81f14610195578063f8626af8146101d557610086565b806336f89bcd1461008b5780633ccfd60b146100b65780636f9fb98a146100cd5780638da5cb5b146100f8575b600080fd5b34801561009757600080fd5b506100a0610215565b6040516100ad9190610d34565b60405180910390f35b3480156100c257600080fd5b506100cb6102a3565b005b3480156100d957600080fd5b506100e26104b8565b6040516100ef9190610df6565b60405180910390f35b34801561010457600080fd5b5061010d6104c0565b60405161011a9190610ccd565b60405180910390f35b61013d60048036038101906101389190610a51565b6104e4565b005b34801561014b57600080fd5b50610154610671565b6040516101619190610df6565b60405180910390f35b34801561017657600080fd5b5061017f610677565b60405161018c9190610df6565b60405180910390f35b3480156101a157600080fd5b506101bc60048036038101906101b79190610a92565b610684565b6040516101cc9493929190610ce8565b60405180910390f35b3480156101e157600080fd5b506101fc60048036038101906101f79190610a92565b610849565b60405161020c9493929190610ce8565b60405180910390f35b6001805461022290610fab565b80601f016020809104026020016040519081016040528092919081815260200182805461024e90610fab565b801561029b5780601f106102705761010080835404028352916020019161029b565b820191906000526020600020905b81548152906001019060200180831161027e57829003601f168201915b505050505081565b60008054906101000a900473ffffffffffffffffffffffffffffffffffffffff1673ffffffffffffffffffffffffffffffffffffffff163373ffffffffffffffffffffffffffffffffffffffff1614610331576040517f08c379a000000000000000000000000000000000000000000000000000000000815260040161032890610d56565b60405180910390fd5b600047905060008111610379576040517f08c379a000000000000000000000000000000000000000000000000000000000815260040161037090610db6565b60405180910390fd5b60008060009054906101000a900473ffffffffffffffffffffffffffffffffffffffff1673ffffffffffffffffffffffffffffffffffffffff16826040516103c090610cb8565b60006040518083038185875af1925050503d80600081146103fd576040519150601f19603f3d011682016040523d82523d6000602084013e610402565b606091505b5050905080610446576040517f08c379a000000000000000000000000000000000000000000000000000000000815260040161043d90610dd6565b60405180910390fd5b60008054906101000a900473ffffffffffffffffffffffffffffffffffffffff1673ffffffffffffffffffffffffffffffffffffffff167f7fcf532c15f0a6db0bd6d0e038bea71d30d808c7d98cb3bf7268a95bf5081b65836040516104ac9190610df6565b60405180910390a25050565b600047905090565b60008054906101000a900473ffffffffffffffffffffffffffffffffffffffff1681565b60003411610527576040517f08c379a000000000000000000000000000000000000000000000000000000000815260040161051e90610d76565b60405180910390fd5b600360405180608001604052803373ffffffffffffffffffffffffffffffffffffffff16815260200134815260200142815260200183815250908060018154018082558091505060019003906000526020600020906004020160009091909190915060008201518160000160006101000a81548173ffffffffffffffffffffffffffffffffffffffff021916908373ffffffffffffffffffffffffffffffffffffffff16021790555060208201518160010155604082015181600201556060820151816003019080519060200190610600929190610931565b50505034600260008282546106159190610ed7565b925050819055503373ffffffffffffffffffffffffffffffffffffffff167ff041a5bfea1be2e3f78bbadfadc66bb6f6d62860e629a44d71bec1ef49411c9e34428460405161066693929190610e11565b60405180910390a250565b60025481565b6000600380549050905090565b6000806000606060038054905085106106d2576040517f08c379a00000000000000000000000000000000000000000000000000000000081526004016106c990610d96565b60405180910390fd5b60006003868154811061070e577f4e487b7100000000000000000000000000000000000000000000000000000000600052603260045260246000fd5b90600052602060002090600402016040518060800160405290816000820160009054906101000a900473ffffffffffffffffffffffffffffffffffffffff1673ffffffffffffffffffffffffffffffffffffffff1673ffffffffffffffffffffffffffffffffffffffff16815260200160018201548152602001600282015481526020016003820180546107a190610fab565b80601f01602080910402602001604051908101604052809291908181526020018280546107cd90610fab565b801561081a5780601f106107ef5761010080835404028352916020019161081a565b820191906000526020600020905b8154815290600101906020018083116107fd57829003601f168201915b505050505081525050905080600001518160200151826040015183606001519450945094509450509193509193565b6003818154811061085957600080fd5b90600052602060002090600402016000915090508060000160009054906101000a900473ffffffffffffffffffffffffffffffffffffffff16908060010154908060020154908060030180546108ae90610fab565b80601f01602080910402602001604051908101604052809291908181526020018280546108da90610fab565b80156109275780601f106108fc57610100808354040283529160200191610927565b820191906000526020600020905b81548152906001019060200180831161090a57829003601f168201915b5050505050905084565b82805461093d90610fab565b90600052602060002090601f01602090048101928261095f57600085556109a6565b82601f1061097857805160ff19168380011785556109a6565b828001600101855582156109a6579182015b828111156109a557825182559160200191906001019061098a565b5b5090506109b391906109b7565b5090565b5b808211156109d05760008160009055506001016109b8565b5090565b60006109e76109e284610e80565b610e4f565b9050828152602081018484840111156109ff57600080fd5b610a0a848285610f69565b509392505050565b600082601f830112610a2357600080fd5b8135610a338482602086016109d4565b91505092915050565b600081359050610a4b8161107b565b92915050565b600060208284031215610a6357600080fd5b600082013567ffffffffffffffff811115610a7d57600080fd5b610a8984828501610a12565b91505092915050565b600060208284031215610aa457600080fd5b6000610ab284828501610a3c565b91505092915050565b610ac481610f2d565b82525050565b6000610ad582610eb0565b610adf8185610ec6565b9350610aef818560208601610f78565b610af88161106a565b840191505092915050565b6000610b10602183610ec6565b91507f4f6e6c79206f776e65722063616e2063616c6c20746869732066756e6374696f60008301527f6e000000000000000000000000000000000000000000000000000000000000006020830152604082019050919050565b6000610b76602683610ec6565b91507f446f6e6174696f6e20616d6f756e74206d75737420626520677265617465722060008301527f7468616e203000000000000000000000000000000000000000000000000000006020830152604082019050919050565b6000610bdc601783610ec6565b91507f446f6e6174696f6e20646f6573206e6f742065786973740000000000000000006000830152602082019050919050565b6000610c1c601483610ec6565b91507f4e6f2066756e647320746f2077697468647261770000000000000000000000006000830152602082019050919050565b6000610c5c600083610ebb565b9150600082019050919050565b6000610c76601183610ec6565b91507f5769746864726177616c206661696c65640000000000000000000000000000006000830152602082019050919050565b610cb281610f5f565b82525050565b6000610cc382610c4f565b9150819050919050565b6000602082019050610ce26000830184610abb565b92915050565b6000608082019050610cfd6000830187610abb565b610d0a6020830186610ca9565b610d176040830185610ca9565b8181036060830152610d298184610aca565b905095945050505050565b60006020820190508181036000830152610d4e8184610aca565b905092915050565b60006020820190508181036000830152610d6f81610b03565b9050919050565b60006020820190508181036000830152610d8f81610b69565b9050919050565b60006020820190508181036000830152610daf81610bcf565b9050919050565b60006020820190508181036000830152610dcf81610c0f565b9050919050565b60006020820190508181036000830152610def81610c69565b9050919050565b6000602082019050610e0b6000830184610ca9565b92915050565b6000606082019050610e266000830186610ca9565b610e336020830185610ca9565b8181036040830152610e458184610aca565b9050949350505050565b6000604051905081810181811067ffffffffffffffff82111715610e7657610e7561103b565b5b8060405250919050565b600067ffffffffffffffff821115610e9b57610e9a61103b565b5b601f19601f8301169050602081019050919050565b600081519050919050565b600081905092915050565b600082825260208201905092915050565b6000610ee282610f5f565b9150610eed83610f5f565b9250827fffffffffffffffffffffffffffffffffffffffffffffffffffffffffffffffff03821115610f2257610f21610fdd565b5b828201905092915050565b6000610f3882610f3f565b9050919050565b600073ffffffffffffffffffffffffffffffffffffffff82169050919050565b6000819050919050565b82818337600083830152505050565b60005b83811015610f96578082015181840152602081019050610f7b565b83811115610fa5576000848401525b50505050565b60006002820490506001821680610fc357607f821691505b60208210811415610fd757610fd661100c565b5b50919050565b7f4e487b7100000000000000000000000000000000000000000000000000000000600052601160045260246000fd5b7f4e487b7100000000000000000000000000000000000000000000000000000000600052602260045260246000fd5b7f4e487b7100000000000000000000000000000000000000000000000000000000600052604160045260246000fd5b6000601f19601f8301169050919050565b61108481610f5f565b811461108f57600080fd5b5056fea2646970667358221220a9c237e05d11dc31f139f88d3217f53aa9795c59cde181a2a85972a538f1b9df64736f6c63430008000033",
  "linkReferences": {},
  "deployedLinkReferences": {}
}