{
  "_format": "hh-sol-artifact-1",
  "contractName": "Charity",
  "sourceName": "contracts/Charity.sol",
  "abi": [
    {
      "inputs": [
        {
          "internalType": "string",
          "name": "_charityName",
          "type": "string"
        }
      ],
      "stateMutability": "nonpayable",
      "type": "constructor"
    },
    {
      "anonymous": false,
      "inputs": [
        {
          "indexed": false,
          "internalType": "bool",
          "name": "paused",
          "type": "bool"
        }
      ],
      "name": "ContractPaused",
      "type": "event"
    },
    {
      "anonymous": false,
      "inputs": [
        {
          "indexed": true,
          "internalType": "address",
          "name": "donor",
          "type": "address"
        },
        {
          "indexed": false,
          "internalType": "uint256",
          "name": "amount",
          "type": "uint256"
        },
        {
          "indexed": false,
          "internalType": "uint256",
          "name": "timestamp",
          "type": "uint256"
        },
        {
          "indexed": false,
          "internalType": "string",
          "name": "message",
          "type": "string"
        }
      ],
      "name": "DonationReceived",
      "type": "event"
    },
    {
      "anonymous": false,
      "inputs": [
        {
          "indexed": false,
          "internalType": "uint256",
          "name": "milestoneIndex",
          "type": "uint256"
        },
        {
          "indexed": false,
          "internalType": "uint256",
          "name": "amount",
          "type": "uint256"
        }
      ],
      "name": "MilestoneReached",
      "type": "event"
    },
    {
      "anonymous": false,
      "inputs": [
        {
          "indexed": true,
          "internalType": "address",
          "name": "owner",
          "type": "address"
        },
        {
          "indexed": false,
          "internalType": "uint256",
          "name": "amount",
          "type": "uint256"
        }
      ],
      "name": "Withdrawal",
      "type": "event"
    },
    {
      "inputs": [],
      "name": "charityName",
      "outputs": [
        {
          "internalType": "string",
          "name": "",
          "type": "string"
        }
      ],
      "stateMutability": "view",
      "type": "function"
    },
    {
      "inputs": [
        {
          "internalType": "string",
          "name": "_message",
          "type": "string"
        }
      ],
      "name": "donate",
      "outputs": [],
      "stateMutability": "payable",
      "type": "function"
    },
    {
      "inputs": [
        {
          "internalType": "uint256",
          "name": "",
          "type": "uint256"
        }
      ],
      "name": "donations",
      "outputs": [
        {
          "internalType": "address",
          "name": "donor",
          "type": "address"
        },
        {
          "internalType": "uint256",
          "name": "amount",
          "type": "uint256"
        },
        {
          "internalType": "uint256",
          "name": "timestamp",
          "type": "uint256"
        },
        {
          "internalType": "string",
          "name": "message",
          "type": "string"
        }
      ],
      "stateMutability": "view",
      "type": "function"
    },
    {
      "inputs": [],
      "name": "getContractBalance",
      "outputs": [
        {
          "internalType": "uint256",
          "name": "",
          "type": "uint256"
        }
      ],
      "stateMutability": "view",
      "type": "function"
    },
    {
      "inputs": [
        {
          "internalType": "uint256",
          "name": "index",
          "type": "uint256"
        }
      ],
      "name": "getDonation",
      "outputs": [
        {
          "internalType": "address",
          "name": "donor",
          "type": "address"
        },
        {
          "internalType": "uint256",
          "name": "amount",
          "type": "uint256"
        },
        {
          "internalType": "uint256",
          "name": "timestamp",
          "type": "uint256"
        },
        {
          "internalType": "string",
          "name": "message",
          "type": "string"
        }
      ],
      "stateMutability": "view",
      "type": "function"
    },
    {
      "inputs": [],
      "name": "getDonationCount",
      "outputs": [
        {
          "internalType": "uint256",
          "name": "",
          "type": "uint256"
        }
      ],
      "stateMutability": "view",
      "type": "function"
    },
    {
      "inputs": [
        {
          "internalType": "uint256",
          "name": "index",
          "type": "uint256"
        }
      ],
      "name": "getMilestone",
      "outputs": [
        {
          "internalType": "uint256",
          "name": "amount",
          "type": "uint256"
        },
        {
          "internalType": "bool",
          "name": "released",
          "type": "bool"
        },
        {
          "internalType": "string",
          "name": "description",
          "type": "string"
        }
      ],
      "stateMutability": "view",
      "type": "function"
    },
    {
      "inputs": [],
      "name": "getMilestoneCount",
      "outputs": [
        {
          "internalType": "uint256",
          "name": "",
          "type": "uint256"
        }
      ],
      "stateMutability": "view",
      "type": "function"
    },
    {
      "inputs": [],
      "name": "milestoneAmount",
      "outputs": [
        {
          "internalType": "uint256",
          "name": "",
          "type": "uint256"
        }
      ],
      "stateMutability": "view",
      "type": "function"
    },
    {
      "inputs": [
        {
          "internalType": "uint256",
          "name": "",
          "type": "uint256"
        }
      ],
      "name": "milestones",
      "outputs": [
        {
          "internalType": "uint256",
          "name": "amount",
          "type": "uint256"
        },
        {
          "internalType": "bool",
          "name": "released",
          "type": "bool"
        },
        {
          "internalType": "string",
          "name": "description",
          "type": "string"
        }
      ],
      "stateMutability": "view",
      "type": "function"
    },
    {
      "inputs": [],
      "name": "owner",
      "outputs": [
        {
          "internalType": "address",
          "name": "",
          "type": "address"
        }
      ],
      "stateMutability": "view",
      "type": "function"
    },
    {
      "inputs": [],
      "name": "pause",
      "outputs": [],
      "stateMutability": "nonpayable",
      "type": "function"
    },
    {
      "inputs": [],
      "name": "paused",
      "outputs": [
        {
          "internalType": "bool",
          "name": "",
          "type": "bool"
        }
      ],
      "stateMutability": "view",
      "type": "function"
    },
    {
      "inputs": [
        {
          "internalType": "uint256",
          "name": "_amount",
          "type": "uint256"
        }
      ],
      "name": "setMilestoneAmount",
      "outputs": [],
      "stateMutability": "nonpayable",
      "type": "function"
    },
    {
      "inputs": [],
      "name": "totalDonations",
      "outputs": [
        {
          "internalType": "uint256",
          "name": "",
          "type": "uint256"
        }
      ],
      "stateMutability": "view",
      "type": "function"
    },
    {
      "inputs": [],
      "name": "unpause",
      "outputs": [],
      "stateMutability": "nonpayable",
      "type": "function"
    },
    {
      "inputs": [],
      "name": "withdraw",
      "outputs": [],
      "stateMutability": "nonpayable",
      "type": "function"
    },
    {
      "inputs": [
        {
          "internalType": "uint256",
          "name": "milestoneIndex",
          "type": "uint256"
        }
      ],
      "name": "withdrawMilestone",
      "outputs": [],
      "stateMutability": "nonpayable",
      "type": "function"
    }
  ],
  "bytecode": "0x6080604052655af3107a40006003556000600460006101000a81548160ff0219169083151502179055503480156200003657600080fd5b50604051620026953803806200269583398181016040528101906200005c9190620001de565b336000806101000a81548173ffffffffffffffffffffffffffffffffffffffff021916908373ffffffffffffffffffffffffffffffffffffffff1602179055508060019080519060200190620000b4929190620000bc565b505062000354565b828054620000ca90620002c0565b90600052602060002090601f016020900481019282620000ee57600085556200013a565b82601f106200010957805160ff19168380011785556200013a565b828001600101855582156200013a579182015b82811115620001395782518255916020019190600101906200011c565b5b5090506200014991906200014d565b5090565b5b80821115620001685760008160009055506001016200014e565b5090565b6000620001836200017d8462000257565b62000223565b9050828152602081018484840111156200019c57600080fd5b620001a98482856200028a565b509392505050565b600082601f830112620001c357600080fd5b8151620001d58482602086016200016c565b91505092915050565b600060208284031215620001f157600080fd5b600082015167ffffffffffffffff8111156200020c57600080fd5b6200021a84828501620001b1565b91505092915050565b6000604051905081810181811067ffffffffffffffff821117156200024d576200024c62000325565b5b8060405250919050565b600067ffffffffffffffff82111562000275576200027462000325565b5b601f19601f8301169050602081019050919050565b60005b83811015620002aa5780820151818401526020810190506200028d565b83811115620002ba576000848401525b50505050565b60006002820490506001821680620002d957607f821691505b60208210811415620002f057620002ef620002f6565b5b50919050565b7f4e487b7100000000000000000000000000000000000000000000000000000000600052602260045260246000fd5b7f4e487b7100000000000000000000000000000000000000000000000000000000600052604160045260246000fd5b61233180620003646000396000f3fe6080604052600436106101095760003560e01c8063941cf41511610095578063e89e4ed611610064578063e89e4ed614610306578063ea9ad1af14610345578063eb599e431461036e578063ef07a81f14610397578063f8626af8146103d757610109565b8063941cf41514610269578063b5aebc8014610294578063de2ed893146102b0578063e55a62a8146102db57610109565b80635c975abb116100dc5780635c975abb146101a65780636f9fb98a146101d15780638456cb59146101fc5780638da5cb5b146102135780638f4cf2471461023e57610109565b80632442e1cb1461010e57806336f89bcd1461014d5780633ccfd60b146101785780633f4ba83a1461018f575b600080fd5b34801561011a57600080fd5b50610135600480360381019061013091906118e2565b610417565b60405161014493929190611e9e565b60405180910390f35b34801561015957600080fd5b5061016261058e565b60405161016f9190611d41565b60405180910390f35b34801561018457600080fd5b5061018d61061c565b005b34801561019b57600080fd5b506101a4610881565b005b3480156101b257600080fd5b506101bb610964565b6040516101c89190611d26565b60405180910390f35b3480156101dd57600080fd5b506101e6610977565b6040516101f39190611e83565b60405180910390f35b34801561020857600080fd5b5061021161097f565b005b34801561021f57600080fd5b50610228610a62565b6040516102359190611cbf565b60405180910390f35b34801561024a57600080fd5b50610253610a86565b6040516102609190611e83565b60405180910390f35b34801561027557600080fd5b5061027e610a93565b60405161028b9190611e83565b60405180910390f35b6102ae60048036038101906102a991906118a1565b610a99565b005b3480156102bc57600080fd5b506102c5610c7e565b6040516102d29190611e83565b60405180910390f35b3480156102e757600080fd5b506102f0610c84565b6040516102fd9190611e83565b60405180910390f35b34801561031257600080fd5b5061032d600480360381019061032891906118e2565b610c91565b60405161033c93929190611e9e565b60405180910390f35b34801561035157600080fd5b5061036c600480360381019061036791906118e2565b610d60565b005b34801561037a57600080fd5b50610395600480360381019061039091906118e2565b610df8565b005b3480156103a357600080fd5b506103be60048036038101906103b991906118e2565b6111a4565b6040516103ce9493929190611cda565b60405180910390f35b3480156103e357600080fd5b506103fe60048036038101906103f991906118e2565b611369565b60405161040e9493929190611cda565b60405180910390f35b60008060606006805490508410610463576040517f08c379a000000000000000000000000000000000000000000000000000000000815260040161045a90611da3565b60405180910390fd5b60006006858154811061049f577f4e487b7100000000000000000000000000000000000000000000000000000000600052603260045260246000fd5b9060005260206000209060030201604051806060016040529081600082015481526020016001820160009054906101000a900460ff161515151581526020016002820180546104ed9061216b565b80601f01602080910402602001604051908101604052809291908181526020018280546105199061216b565b80156105665780601f1061053b57610100808354040283529160200191610566565b820191906000526020600020905b81548152906001019060200180831161054957829003601f168201915b5050505050815250509050806000015181602001518260400151935093509350509193909250565b6001805461059b9061216b565b80601f01602080910402602001604051908101604052809291908181526020018280546105c79061216b565b80156106145780601f106105e957610100808354040283529160200191610614565b820191906000526020600020905b8154815290600101906020018083116105f757829003601f168201915b505050505081565b60008054906101000a900473ffffffffffffffffffffffffffffffffffffffff1673ffffffffffffffffffffffffffffffffffffffff163373ffffffffffffffffffffffffffffffffffffffff16146106aa576040517f08c379a00000000000000000000000000000000000000000000000000000000081526004016106a190611d63565b60405180910390fd5b600460009054906101000a900460ff16156106fa576040517f08c379a00000000000000000000000000000000000000000000000000000000081526004016106f190611e43565b60405180910390fd5b600047905060008111610742576040517f08c379a000000000000000000000000000000000000000000000000000000000815260040161073990611e03565b60405180910390fd5b60008060009054906101000a900473ffffffffffffffffffffffffffffffffffffffff1673ffffffffffffffffffffffffffffffffffffffff168260405161078990611caa565b60006040518083038185875af1925050503d80600081146107c6576040519150601f19603f3d011682016040523d82523d6000602084013e6107cb565b606091505b505090508061080f576040517f08c379a000000000000000000000000000000000000000000000000000000000815260040161080690611e63565b60405180910390fd5b60008054906101000a900473ffffffffffffffffffffffffffffffffffffffff1673ffffffffffffffffffffffffffffffffffffffff167f7fcf532c15f0a6db0bd6d0e038bea71d30d808c7d98cb3bf7268a95bf5081b65836040516108759190611e83565b60405180910390a25050565b60008054906101000a900473ffffffffffffffffffffffffffffffffffffffff1673ffffffffffffffffffffffffffffffffffffffff163373ffffffffffffffffffffffffffffffffffffffff161461090f576040517f08c379a000000000000000000000000000000000000000000000000000000000815260040161090690611d63565b60405180910390fd5b6000600460006101000a81548160ff0219169083151502179055507f752d7e161ff5146f80e3820893176eb40532811e5e20400dfdde57455213706a600060405161095a9190611d26565b60405180910390a1565b600460009054906101000a900460ff1681565b600047905090565b60008054906101000a900473ffffffffffffffffffffffffffffffffffffffff1673ffffffffffffffffffffffffffffffffffffffff163373ffffffffffffffffffffffffffffffffffffffff1614610a0d576040517f08c379a0000000000000000000000000000000000000000000000000000000008152600401610a0490611d63565b60405180910390fd5b6001600460006101000a81548160ff0219169083151502179055507f752d7e161ff5146f80e3820893176eb40532811e5e20400dfdde57455213706a6001604051610a589190611d26565b60405180910390a1565b60008054906101000a900473ffffffffffffffffffffffffffffffffffffffff1681565b6000600680549050905090565b60035481565b600460009054906101000a900460ff1615610ae9576040517f08c379a0000000000000000000000000000000000000000000000000000000008152600401610ae090611e43565b60405180910390fd5b60003411610b2c576040517f08c379a0000000000000000000000000000000000000000000000000000000008152600401610b2390611d83565b60405180910390fd5b600560405180608001604052803373ffffffffffffffffffffffffffffffffffffffff16815260200134815260200142815260200183815250908060018154018082558091505060019003906000526020600020906004020160009091909190915060008201518160000160006101000a81548173ffffffffffffffffffffffffffffffffffffffff021916908373ffffffffffffffffffffffffffffffffffffffff16021790555060208201518160010155604082015181600201556060820151816003019080519060200190610c05929190611781565b5050503460026000828254610c1a9190611fd6565b92505081905550610c29611451565b3373ffffffffffffffffffffffffffffffffffffffff167ff041a5bfea1be2e3f78bbadfadc66bb6f6d62860e629a44d71bec1ef49411c9e344284604051610c7393929190611f05565b60405180910390a250565b60025481565b6000600580549050905090565b60068181548110610ca157600080fd5b90600052602060002090600302016000915090508060000154908060010160009054906101000a900460ff1690806002018054610cdd9061216b565b80601f0160208091040260200160405190810160405280929190818152602001828054610d099061216b565b8015610d565780601f10610d2b57610100808354040283529160200191610d56565b820191906000526020600020905b815481529060010190602001808311610d3957829003601f168201915b5050505050905083565b60008054906101000a900473ffffffffffffffffffffffffffffffffffffffff1673ffffffffffffffffffffffffffffffffffffffff163373ffffffffffffffffffffffffffffffffffffffff1614610dee576040517f08c379a0000000000000000000000000000000000000000000000000000000008152600401610de590611d63565b60405180910390fd5b8060038190555050565b60008054906101000a900473ffffffffffffffffffffffffffffffffffffffff1673ffffffffffffffffffffffffffffffffffffffff163373ffffffffffffffffffffffffffffffffffffffff1614610e86576040517f08c379a0000000000000000000000000000000000000000000000000000000008152600401610e7d90611d63565b60405180910390fd5b600460009054906101000a900460ff1615610ed6576040517f08c379a0000000000000000000000000000000000000000000000000000000008152600401610ecd90611e43565b60405180910390fd5b6006805490508110610f1d576040517f08c379a0000000000000000000000000000000000000000000000000000000008152600401610f1490611da3565b60405180910390fd5b60068181548110610f57577f4e487b7100000000000000000000000000000000000000000000000000000000600052603260045260246000fd5b906000526020600020906003020160010160009054906101000a900460ff1615610fb6576040517f08c379a0000000000000000000000000000000000000000000000000000000008152600401610fad90611dc3565b60405180910390fd5b6000600354905080471015611000576040517f08c379a0000000000000000000000000000000000000000000000000000000008152600401610ff790611e23565b60405180910390fd5b60016006838154811061103c577f4e487b7100000000000000000000000000000000000000000000000000000000600052603260045260246000fd5b906000526020600020906003020160010160006101000a81548160ff02191690831515021790555060008060009054906101000a900473ffffffffffffffffffffffffffffffffffffffff1673ffffffffffffffffffffffffffffffffffffffff16826040516110ab90611caa565b60006040518083038185875af1925050503d80600081146110e8576040519150601f19603f3d011682016040523d82523d6000602084013e6110ed565b606091505b5050905080611131576040517f08c379a000000000000000000000000000000000000000000000000000000000815260040161112890611e63565b60405180910390fd5b60008054906101000a900473ffffffffffffffffffffffffffffffffffffffff1673ffffffffffffffffffffffffffffffffffffffff167f7fcf532c15f0a6db0bd6d0e038bea71d30d808c7d98cb3bf7268a95bf5081b65836040516111979190611e83565b60405180910390a2505050565b6000806000606060058054905085106111f2576040517f08c379a00000000000000000000000000000000000000000000000000000000081526004016111e990611de3565b60405180910390fd5b60006005868154811061122e577f4e487b7100000000000000000000000000000000000000000000000000000000600052603260045260246000fd5b90600052602060002090600402016040518060800160405290816000820160009054906101000a900473ffffffffffffffffffffffffffffffffffffffff1673ffffffffffffffffffffffffffffffffffffffff1673ffffffffffffffffffffffffffffffffffffffff16815260200160018201548152602001600282015481526020016003820180546112c19061216b565b80601f01602080910402602001604051908101604052809291908181526020018280546112ed9061216b565b801561133a5780601f1061130f5761010080835404028352916020019161133a565b820191906000526020600020905b81548152906001019060200180831161131d57829003601f168201915b505050505081525050905080600001518160200151826040015183606001519450945094509450509193509193565b6005818154811061137957600080fd5b90600052602060002090600402016000915090508060000160009054906101000a900473ffffffffffffffffffffffffffffffffffffffff16908060010154908060020154908060030180546113ce9061216b565b80601f01602080910402602001604051908101604052809291908181526020018280546113fa9061216b565b80156114475780601f1061141c57610100808354040283529160200191611447565b820191906000526020600020905b81548152906001019060200180831161142a57829003601f168201915b5050505050905084565b6000600354600254611463919061202c565b905060006006805490509050808211156115ca5760008190505b828110156115c857600660405180606001604052806003546001856114a29190611fd6565b6114ac919061205d565b81526020016000151581526020016114cf6001856114ca9190611fd6565b6115ce565b6040516020016114df9190611c88565b60405160208183030381529060405281525090806001815401808255809150506001900390600052602060002090600302016000909190919091506000820151816000015560208201518160010160006101000a81548160ff0219169083151502179055506040820151816002019080519060200190611560929190611781565b5050507fe5f196b7c35531c9cdf28ee121967688b244c8557b574489a6182e8f66c929d3816003546001846115959190611fd6565b61159f919061205d565b6040516115ad929190611edc565b60405180910390a180806115c09061219d565b91505061147d565b505b5050565b60606000821415611616576040518060400160405280600181526020017f3000000000000000000000000000000000000000000000000000000000000000815250905061177c565b600082905060005b600082146116485780806116319061219d565b915050600a82611641919061202c565b915061161e565b60008167ffffffffffffffff81111561168a577f4e487b7100000000000000000000000000000000000000000000000000000000600052604160045260246000fd5b6040519080825280601f01601f1916602001820160405280156116bc5781602001600182028036833780820191505090505b50905060008290508593505b6000841461177457600a846116dd91906121e6565b60306116e99190611fd6565b60f81b82826116f790612141565b92508281518110611731577f4e487b7100000000000000000000000000000000000000000000000000000000600052603260045260246000fd5b60200101907effffffffffffffffffffffffffffffffffffffffffffffffffffffffffffff1916908160001a905350600a8461176d919061202c565b93506116c8565b819450505050505b919050565b82805461178d9061216b565b90600052602060002090601f0160209004810192826117af57600085556117f6565b82601f106117c857805160ff19168380011785556117f6565b828001600101855582156117f6579182015b828111156117f55782518255916020019190600101906117da565b5b5090506118039190611807565b5090565b5b80821115611820576000816000905550600101611808565b5090565b600061183761183284611f74565b611f43565b90508281526020810184848401111561184f57600080fd5b61185a8482856120ff565b509392505050565b600082601f83011261187357600080fd5b8135611883848260208601611824565b91505092915050565b60008135905061189b816122e4565b92915050565b6000602082840312156118b357600080fd5b600082013567ffffffffffffffff8111156118cd57600080fd5b6118d984828501611862565b91505092915050565b6000602082840312156118f457600080fd5b60006119028482850161188c565b91505092915050565b611914816120b7565b82525050565b611923816120c9565b82525050565b600061193482611fa4565b61193e8185611fba565b935061194e81856020860161210e565b611957816122d3565b840191505092915050565b600061196d82611fa4565b6119778185611fcb565b935061198781856020860161210e565b80840191505092915050565b60006119a0602183611fba565b91507f4f6e6c79206f776e65722063616e2063616c6c20746869732066756e6374696f60008301527f6e000000000000000000000000000000000000000000000000000000000000006020830152604082019050919050565b6000611a06600a83611fcb565b91507f4d696c6573746f6e6520000000000000000000000000000000000000000000006000830152600a82019050919050565b6000611a46602683611fba565b91507f446f6e6174696f6e20616d6f756e74206d75737420626520677265617465722060008301527f7468616e203000000000000000000000000000000000000000000000000000006020830152604082019050919050565b6000611aac601883611fba565b91507f4d696c6573746f6e6520646f6573206e6f7420657869737400000000000000006000830152602082019050919050565b6000611aec601a83611fba565b91507f4d696c6573746f6e6520616c72656164792072656c65617365640000000000006000830152602082019050919050565b6000611b2c601783611fba565b91507f446f6e6174696f6e20646f6573206e6f742065786973740000000000000000006000830152602082019050919050565b6000611b6c601483611fba565b91507f4e6f2066756e647320746f2077697468647261770000000000000000000000006000830152602082019050919050565b6000611bac601283611fba565b91507f496e73756666696369656e742066756e647300000000000000000000000000006000830152602082019050919050565b6000611bec600083611faf565b9150600082019050919050565b6000611c06601283611fba565b91507f436f6e74726163742069732070617573656400000000000000000000000000006000830152602082019050919050565b6000611c46601183611fba565b91507f5769746864726177616c206661696c65640000000000000000000000000000006000830152602082019050919050565b611c82816120f5565b82525050565b6000611c93826119f9565b9150611c9f8284611962565b915081905092915050565b6000611cb582611bdf565b9150819050919050565b6000602082019050611cd4600083018461190b565b92915050565b6000608082019050611cef600083018761190b565b611cfc6020830186611c79565b611d096040830185611c79565b8181036060830152611d1b8184611929565b905095945050505050565b6000602082019050611d3b600083018461191a565b92915050565b60006020820190508181036000830152611d5b8184611929565b905092915050565b60006020820190508181036000830152611d7c81611993565b9050919050565b60006020820190508181036000830152611d9c81611a39565b9050919050565b60006020820190508181036000830152611dbc81611a9f565b9050919050565b60006020820190508181036000830152611ddc81611adf565b9050919050565b60006020820190508181036000830152611dfc81611b1f565b9050919050565b60006020820190508181036000830152611e1c81611b5f565b9050919050565b60006020820190508181036000830152611e3c81611b9f565b9050919050565b60006020820190508181036000830152611e5c81611bf9565b9050919050565b60006020820190508181036000830152611e7c81611c39565b9050919050565b6000602082019050611e986000830184611c79565b92915050565b6000606082019050611eb36000830186611c79565b611ec0602083018561191a565b8181036040830152611ed28184611929565b9050949350505050565b6000604082019050611ef16000830185611c79565b611efe6020830184611c79565b9392505050565b6000606082019050611f1a6000830186611c79565b611f276020830185611c79565b8181036040830152611f398184611929565b9050949350505050565b6000604051905081810181811067ffffffffffffffff82111715611f6a57611f696122a4565b5b8060405250919050565b600067ffffffffffffffff821115611f8f57611f8e6122a4565b5b601f19601f8301169050602081019050919050565b600081519050919050565b600081905092915050565b600082825260208201905092915050565b600081905092915050565b6000611fe1826120f5565b9150611fec836120f5565b9250827fffffffffffffffffffffffffffffffffffffffffffffffffffffffffffffffff0382111561202157612020612217565b5b828201905092915050565b6000612037826120f5565b9150612042836120f5565b92508261205257612051612246565b5b828204905092915050565b6000612068826120f5565b9150612073836120f5565b9250817fffffffffffffffffffffffffffffffffffffffffffffffffffffffffffffffff04831182151516156120ac576120ab612217565b5b828202905092915050565b60006120c2826120d5565b9050919050565b60008115159050919050565b600073ffffffffffffffffffffffffffffffffffffffff82169050919050565b6000819050919050565b82818337600083830152505050565b60005b8381101561212c578082015181840152602081019050612111565b8381111561213b576000848401525b50505050565b600061214c826120f5565b915060008214156121605761215f612217565b5b600182039050919050565b6000600282049050600182168061218357607f821691505b6020821081141561219757612196612275565b5b50919050565b60006121a8826120f5565b91507fffffffffffffffffffffffffffffffffffffffffffffffffffffffffffffffff8214156121db576121da612217565b5b600182019050919050565b60006121f1826120f5565b91506121fc836120f5565b92508261220c5761220b612246565b5b828206905092915050565b7f4e487b7100000000000000000000000000000000000000000000000000000000600052601160045260246000fd5b7f4e487b7100000000000000000000000000000000000000000000000000000000600052601260045260246000fd5b7f4e487b7100000000000000000000000000000000000000000000000000000000600052602260045260246000fd5b7f4e487b7100000000000000000000000000000000000000000000000000000000600052604160045260246000fd5b6000601f19601f8301169050919050565b6122ed816120f5565b81146122f857600080fd5b5056fea26469706673582212207477e413bd84f660972916000e9ee7626f690ac00a054a75d4aa43dda033cbed64736f6c63430008000033",
  "linkReferences": {},
  "deployedLinkReferences": {}
}